:100000000C9434000C9446000C9446000C9462004E
:100010000C9446000C9446000C9446000C94460048
:100020000C9446000C9446000C9446000C94460038
:100030000C9446000C9446000C9446000C94460028
:100040000C9446000C9446000C9446000C94460018
:100050000C9446000C9446000C9446000C94460008
:100060000C9446000C94460011241FBECFEFD8E03C
:10007000DEBFCDBF21E0A0E0B1E001C01D92A23003
:10008000B207E1F70E94A1000C94FE000C9400005E
:10009000F89490E0880F991F92602AE080FF02C0D8
:1000A0002C9A01C02C98969587953CEC3A95F1F7DF
:1000B0003CEC3A95F1F732ED3A95F1F7215071F7B2
:1000C000789408951F920F920FB60F9211248F9378
:1000D0009F931B992FC0F8948CE98A95F1F78CE9CE
:1000E0008A95F1F71092010198E08CEC8A95F1F76E
:1000F0008CEC8A95F1F782ED8A95F1F780910101F8
:100100008695809301011B9B05C080910101806849
:1001100080930101915049F78CEC8A95F1F78CECB2
:100120008A95F1F782ED8A95F1F781E080930001DD
:100130008BBB78949F918F910F900FBE0F901F9063
:100140001895CF93DF93CDB7DEB764970FB6F894C9
:10015000DEBF0FBECDBFF89480E184B98AE087B9D5
:100160001AB884B1809585B987B1809588B98AB16C
:1001700080958BB988E080936B0081E08093680064
:100180008BBB2C9A1092000185E50E944800789460
:1001900000E0189B02C0299A01C029981A9B02C04E
:1001A0002B9A01C02B9880910001882361F0109256
:1001B000000180910101E1E0F0E0EC0FFD1FE00F94
:1001C000F11D80830F5F809101018A3039F4002393
:1001D00001F3CE0101967C0110E003C00431C9F6A1
:1001E000F8CFF70181917F01803218F08F5F0E9474
:1001F00048001F5F1017A8F300E0CBCFF894FFCFA3
:00000001FF
