:1000000015C0A4C38BC3A2C334C3A0C39FC39EC3E4
:100010009DC39CC39BC39AC399C3CFC297C396C3C6
:1000200095C394C393C300600097800011241FBE42
:10003000CFEDCDBFE6E2F0E040E017C0B591A5916D
:1000400035912591059107FD0CC095918591EF01A2
:10005000F92FE82F05900D92A217B307D9F7FE01EB
:1000600004C01D92A217B307E1F7EB32F40731F792
:0800700003D000C0F894FFCF9B
:10007800CF93DF93CDB7DD27C850CDBFF89480E18B
:1000880087BB82E381BB18BA81E582BB92E090BF4F
:1000980013BE8FE186BF12BE1FBC88E08EBD20E272
:1000A80030E03BBD2ABD1DBC1CBC21E429BF85BF77
:1000B8001BBE12B819B81CB81BB888E18AB986E00B
:1000C80083B912B88AE089B910928200109285002B
:1000D80085E589838A838FEF8D831E821F82188628
:1000E800809380008093830090938600789410E03A
:1000F800312C512C44244A9407C0212C00E004C020
:10010800152D02C0152D352C909182008091850007
:10011800981791F05D9B10C0E091850081E08E0FEB
:1001280080938500F0E0E957FF4F80818CB980917A
:1001380085008F7080938500809180008A3009F057
:10014800D8C140928000E0918200F0E0E957FF4F6B
:100158004082E0918200F0E0E857FF4F82EF808311
:10016800E0918200F0E080918400E757FF4F8083A0
:10017800E0918200F0E0E657FF4F10828091820004
:100188008C5F80938200809182008F7080938200C0
:10019800112309F4BBC0113C09F48CC018F4103CBD
:1001A80039F0B2CF123C21F0133C09F483C0ACCF34
:1001B8005F9B07C0E22DF0E08CB1E05AFF4F8083CF
:1001C8002394021508F0A0CF103C19F400FFC8C111
:1001D800B6C1123C09F090C181EC8983BA82AB8226
:1001E800E02FF0E0E05AFF4F80818C83BE016B5F07
:1001F8007F4FCE01019667D28FEFA81AB80A8A14EA
:100208009B04E1F4103C19F48CE4898304C0123C8B
:1002180011F482EC89837A826B825C82BE016B5F07
:100228007F4FCE0101964FD2680C791C87EA91E680
:100238000197F1F700C00000A12CB12C0F5F00322C
:1002480009F062CFE091820081E08E0F80938200F6
:10025800F0E0E957FF4F4082E091820081E08E0F85
:1002680080938200F0E0E957FF4F1083E09182000D
:1002780081E08E0F80938200F0E0E957FF4F708293
:10028800E091820081E08E0F80938200F0E0E957D0
:10029800FF4F6082809182008F70809382009FEF71
:1002A800E91AF90ACE14DF0409F027CF212C00E05F
:1002B800152D2ACF9091820080918500981324CF24
:1002C800113C19F400FF69C15CC1133C09F027C156
:1002D80080EA89837A826B825C82BE016B5F7F4F82
:1002E800CE010196F0D19FEF691A790A0F5F0032AB
:1002F80021F48FEFE81AF80A00E05D9BFECF8885AD
:100308008CB9CE14DF04E1F6152DFECE5F9B09C033
:100318008CB1E1E0F0E0EC0FFD1FE30DF11D8083EF
:10032800339494E03912ECCE89818F3F69F08BB712
:1003380081110AC0BE016B5F7F4FCE010196C3D108
:100348008FE68D83152DF9C04D821A811E835F8239
:1003580058861E3009F459C068F41A30F1F128F4AF
:100368001123D9F01630E1F08DC01C3009F441C0DA
:10037800D8F146C0143C38F4103C08F04FC0143192
:1003880009F448C07FC0113F09F465C01F3F09F454
:1003980076C01E3C09F076C055C08EEF8D83C9C06B
:1003A8008B81811106C08BB78F778BBF94989598F6
:1003B80069C0813049F4949A959A8AB780688ABF4F
:1003C8008BB780688BBF5EC0823011F495985AC095
:1003D800833009F0B1C0959A55C088B39B819F704E
:1003E800807F892B88BB4EC088B38F708F83152D73
:1003F800A4C087B39B819F70807F892B87BB42C035
:1004080087B38F708F83152D98C086B38F708F83B5
:10041800152D93C092E09F83152D8FC0103C11F4C9
:1004280096948794CB80D12CDC2CCC248C81C80E5C
:10043800D11CA12CB12C612C712C212C00E0E12CB9
:10044800F12C7BC08B80912C982C88248C81880E71
:10045800911C152D72C0809183008F3F19F048863A
:10046800152D6BC08B81809381001DBC1CBC8EB583
:1004780083608EBD949881E08093830003C09EEFD3
:100488009D8357C08D818E3F09F43CCE152DE09198
:10049800820091E09E0F90938200F0E0E957FF4FB1
:1004A8008083E091820081E08E0F80938200F0E0EB
:1004B8008E81E957FF4F8083E091820081E08E0FA3
:1004C80080938200F0E08F81E957FF4F8083E091AD
:1004D800820081E08E0F80938200F0E08885E957E2
:1004E800FF4F8083809182008F7080938200352C2B
:1004F8000BCE111150CE0ACFBA82AB82E02FF0E0BA
:10050800E05AFF4F80818C83BE016B5F7F4FCE0125
:100518000196D9D08A149B0409F090CE7CCE7A82B9
:100528006B825C82BE016B5F7F4FCE010196CBD0A0
:10053800DDCE152D352CE8CD152D8D81A8CF88E47D
:100548008983BA82AB82E02FF0E0E05AFF4F8081C6
:100558008C83BE016B5F7F4FCE010196B4D04CCE29
:1005680080E48983BA82AB82E02FF0E0E05AFF4F43
:1005780080818C83BE016B5F7F4FCE010196A3D033
:100588003ECE88E289837A826B825C82BE016B5F91
:100598007F4FCE01019697D0A6CE90E299837A82BA
:1005A8006B825C82BE016B5F7F4FCE0101968BD060
:0205B8009DCED6
:1005BA001F920F920FB60F9211248F939F9380B3BD
:1005CA0088709091800091110FC08823E1F183B760
:1005DA00887F83BF8AB780688ABF8BB780688BBFE2
:1005EA008FEF8093800039C090918000993079F420
:1005FA0093B7987F93BF9AB790689ABF9BB7906852
:10060A009BBF811110C08FEF8093800026C090910C
:10061A008400969590938400882329F08091840021
:10062A00806880938400809180008F5F809380002F
:10063A0014C083B7887F83BF8AB780688ABF8BB7A5
:10064A0080688BBFE0CF80918000893091F38091E0
:10065A008400869580938400E6CF9F918F910F90B6
:08066A000FBE0F901F901895C0
:100672001F920F920FB60F9211248F9380918300D5
:10068200893011F4949A17C0809183008A3039F42A
:100692008EB5887F8EBD8FEF8093830011C08091CD
:1006A200810080FF02C0949A01C0949880918100D9
:1006B200869580938100809183008F5F8093830071
:0C06C2008F910F900FBE0F901F901895A5
:1006CE00FC01A62FB72FBC016C5F7F4F419138E024
:1006DE0020E0442314F4949A01C09498440FC49AD1
:1006EE0090918600992311F09150F1F7220F839982
:1006FE002160C49890918600992311F09150F1F7E2
:0E070E00315039F72D93E617F70701F70895DC
:10071C001F920F920FB60F9211248F931092840098
:10072C00109280008BB78F778BBF8FE082BF83B71F
:10073C00836083BF8F910F900FBE0F901F90189501
:02074C0059CC86
:00000001FF
