:1000000015C0D0C3B7C3CEC33DC3CCC3CBC38FC30E
:10001000C9C3C8C3C7C3C6C3C5C3D8C2C3C3C2C389
:10002000C1C3C0C3BFC300600089800011241FBECC
:10003000CFEDCDBFE6E2F0E040E017C0B591A5916D
:1000400035912591059107FD0CC095918591EF01A2
:10005000F92FE82F05900D92A217B307D9F7FE01EB
:1000600004C01D92A217B307E1F7EB32F40731F792
:0800700003D000C0F894FFCF9B
:10007800CF93DF93CDB7DD27C851CDBFF89480E18A
:1000880087BB82E381BB18BA81E582BB82E080BF6F
:1000980013BE9FE196BF12BE1FBC98E09EBD20E232
:1000A80030E03BBD2ABD1DBC1CBC21E429BF95BF67
:1000B8001BBE12B819B81CB88BB998E99AB996E062
:1000C80093B912B89AE099B91092880010928600F4
:1000D8009FEF90938000909384008093870078949A
:1000E80000E010E0512C44244A940F2EF2EF3F2EEA
:1000F800F02D0F2EFEEF2F2EF02D10C0151571F0DC
:100108005D9B0CC081E0850DE1E0F0E0EC0FFD1F88
:10011800E50DF11D90819CB98F70582E809180005B
:100128008A3031F540928000812F90E0E1E0F0E0E4
:10013800EC0FFD1FE80FF91F4082E2E0F0E0EC0F42
:10014800FD1FE80FF91F308220918500E3E0F0E001
:10015800EC0FFD1FE80FF91F2083E4E0F0E0EC0F3F
:10016800FD1FE80FF91F108284E0810F182F1F7000
:10017800002309F4F1C0013C09F4A6C018F4003CBE
:1001880039F0E5C1023C21F0033C09F49DC0DFC110
:100198009091860080918800981708F0D8C1003C9B
:1001A800E1F48091860080FF02C088E401C080E409
:1001B8008D8BFE8AEF8AE0918600F0E0E05AFF4FCF
:1001C8008081888FBE016F5E7F4FCE01459684D2B5
:1001D8008091860080FD15C0F0C1023C09F0CDC1B8
:1001E80081EC8D8BFE8AEF8AE0918600F0E0E05A80
:1001F800FF4F8081888FBE016F5E7F4FCE0145968D
:100208006BD28FEFE81AF80AE614F704E1F4003C21
:1002180019F48CE48D8B04C0023C11F482EC8D8BB4
:10022800DE8ACF8A188EBE016F5E7F4FCE0145965B
:1002380053D2C60CD71CE7EAF1E63197F1F700C0B4
:100248000000E12CF12C809186008F5F809386005E
:1002580080918600803269F510928600109288009D
:10026800E1E0F0E0EC0FFD1FE10FF11D408281E0BD
:10027800810FE1E0F0E0EC0FFD1FE80FF11D0083B6
:1002880082E0810FE1E0F0E0EC0FFD1FE80FF11DC7
:10029800D08284E0810F93E0910FE1E0F0E0EC0F71
:1002A800FD1FE90FF11DC082182F1F70FFEFAF1A55
:1002B800BF0AA814B90409F400E08FEF9FEF9093E8
:1002C80083008093820043C1151141C1013CB1F400
:1002D8008091860080FF02C088E201C080E28D8B99
:1002E800DE8ACF8A188EBE016F5E7F4FCE0145969B
:1002F800F3D18091860080FD0FC011C0033C09F046
:1003080050C180EA8D8BDE8ACF8A188EBE016F5E5F
:100318007F4FCE014596E0D19FEFC91AD90A5D9B60
:10032800FECF8C898CB9809186008F5F8093860080
:1003380080918600803229F4EFEFAE1ABE0A10923F
:100348008600A814B90409F400E08FEF9FEF90939A
:10035800830080938200FBC080918800843009F07C
:10036800F6C010928800E0E6F0E080818F3F59F0F7
:100378008BB7811108C0BE016F5E7F4FCF01ACD132
:100388008FE6898B18C1498A809161008A8B1B8A04
:100398001C8A809161008E3009F464C078F48A3038
:1003A80009F448C028F48823F9F08630F9F0A3C08E
:1003B8008C3009F44BC008F445C050C0843C50F45C
:1003C800803C08F05BC0843109F450C0853109F4E1
:1003D80050C091C0813F09F478C08F3F09F489C0AB
:1003E8008E3C09F088C066C0298AB1C0809162003D
:1003F800811106C08BB78F778BBF949895987BC077
:1004080080916200813049F4949A959A8AB78068FD
:100418008ABF8BB780688BBF6EC0809162008230C4
:1004280011F4959868C080916200833009F0C3C0C8
:10043800959A61C098B380916200907F8F70892BE4
:1004480088BB59C088B38F708B8BB5C097B3809128
:100458006200907F8F70892B87BB4DC087B38F70E8
:100468008B8BA9C086B38F708B8BA5C0F2E0FB8BFA
:10047800A2C080916200809387009DC000916100B6
:1004880080916100803C11F47694679480906200BA
:10049800912C982C882480916300880E911C1092CE
:1004A800880010928600E12CF12CC12CD12CA12CB3
:1004B800B12C81C08091620090E0982F882720910C
:1004C80063003C01620E711C76C0809184008F3FEE
:1004D80011F04C8A70C080916200809381001DBC2D
:1004E8001CBC8EB583608EBD949881E08093840097
:1004F80002C0298A2CC089898E3F49F1E1E0F0E0E9
:10050800EC0FFD1FE10FF11D808381E0810FE1E019
:10051800F0E0EC0FFD1FE80FF11D8A89808382E06F
:10052800810FE1E0F0E0EC0FFD1FE80FF11D8B8972
:10053800808384E0810F93E0910FE1E0F0E0EC0F1D
:10054800FD1FE90FF11D9C899083182F1F70809162
:10055800820090918300019790938300809382009A
:100568008091820090918300892B09F0C7CD109269
:1005780088001092860000E0C1CDFE8AEF8AE091E3
:100588008600F0E0E05AFF4F8081888FBE016F5EE1
:100598007F4FCE014596A0D06E147F0409F053CE4C
:1005A8003FCEDE8ACF8A188EBE016F5E7F4FCE01A6
:1005B800459692D0B4CE8989A1CF6E147F0409F0F4
:0405C80042CE27CE2A
:1005CC001F920F920FB60F9211248F939F9380B3AB
:1005DC0088709091800091110FC08823E1F183B74E
:1005EC00887F83BF8AB780688ABF8BB780688BBFD0
:1005FC008FEF8093800039C090918000993079F40E
:10060C0093B7987F93BF9AB790689ABF9BB790683F
:10061C009BBF811110C08FEF8093800026C09091FA
:10062C008500969590938500882329F0809185000C
:10063C00806880938500809180008F5F809380001C
:10064C0014C083B7887F83BF8AB780688ABF8BB793
:10065C0080688BBFE0CF80918000893091F38091CE
:10066C008500869580938500E6CF9F918F910F90A2
:08067C000FBE0F901F901895AE
:100684001F920F920FB60F9211248F9380918400C2
:10069400893011F4949A17C0809184008A3039F417
:1006A4008EB5887F8EBD8FEF8093840011C08091BA
:1006B400810080FF02C0949A01C0949880918100C7
:1006C400869580938100809184008F5F809384005D
:0C06D4008F910F900FBE0F901F90189593
:1006E000FC01A62FB72FBC016C5F7F4F419138E012
:1006F00020E0442314F4949A01C09498440FC49ABF
:1007000090918700992311F09150F1F7220F83996E
:100710002160C49890918700992311F09150F1F7CE
:0E072000315039F72D93E617F70701F70895CA
:10072E001F920F920FB60F9211248F939F93EF93F8
:10073E00FF93E091880081E08E0F80938800F0E0B7
:10074E008CB1E05AFF4F80838FEF9FEF9093830021
:10075E0080938200FF91EF919F918F910F900FBE2A
:06076E000F901F9018958A
:100774001F920F920FB60F9211248F93109285003F
:10078400109280008BB78F778BBF8FE082BF83B7C7
:10079400836083BF8F910F900FBE0F901F901895A9
:0207A4002DCC5A
:00000001FF
