:1000000015C0BEC3A5C3BCC34EC3BAC3B9C3B8C32E
:10001000B7C3B6C3B5C3B4C3B3C3E9C2B1C3B0C3F6
:10002000AFC3AEC3ADC300600077800011241FBE14
:10003000CFEDCDBFE6E2F0E040E017C0B591A5916D
:1000400035912591059107FD0CC095918591EF01A2
:10005000F92FE82F05900D92A217B307D9F7FE01EB
:1000600004C01D92A217B307E1F7EB32F40731F792
:0800700003D000C0F894FFCF9B
:10007800CF93DF93CDB7DD27CA52CDBFF89420E1E7
:1000880027BB22E321BB18BA21E522BB22E020BF0F
:1000980013BE3FE136BF12BE1FBC38E03EBD40E292
:1000A80050E05BBD4ABD1DBC1CBC41E449BF35BF27
:1000B8001BBE12B819B81CB82BB938E13AB936E0EA
:1000C80033B912B83AE039B910926200109265005B
:1000D8003FEF30936000309363002093660078947C
:1000E80010E000E055245A940F2EF2EF3F2EF02D29
:1000F800712C0F2EFFE62F2EF02D309162002091EB
:100108006500321791F05D9B10C0E091650021E019
:100118002E0F20936500F0E0E959FF4F20812CB99C
:10012800209165002F7020936500209160002A308F
:1001380031F550926000E0916200F0E0E959FF4F1C
:100148005082E0916200F0E0E859FF4F3082E09180
:100158006200F0E020916400E759FF4F2083E091AE
:100168006200F0E0E659FF4F1082209162002C5F98
:1001780020936200209162002F7020936200112367
:1001880009F4C7C0113C09F496C018F4103C39F0C2
:10019800BEC1123C21F0133C09F48DC0B8C15F9B6D
:1001A8000BC08CB1E9E0F0E0EC0FFD1FE40DF11D90
:1001B800808343948FEF9FEF641408F0A8C1103C2C
:1001C80019F460FEE5C1D1C1123C09F0A6C181EC69
:1001D8008983FA82EB82E9E0F0E0EC0FFD1FE60D7F
:1001E800F11D80818C83BE016B5F7F4FCE0101962C
:1001F80084D22FEFE21AF20A49A55AA54E155F05D7
:10020800F1F4103C19F48CE4898304C0123C11F415
:1002180082EC8983DA82CB827C82BE016B5F7F4F5E
:10022800CE0101966AD269A57AA5C60ED71E87EABD
:1002380091E60197F1F700C00000E12CF12C6394DE
:1002480090E2691232C0E091620081E08E0F8093E3
:100258006200F0E0E959FF4F5082E091620081E0CE
:100268008E0F80936200F0E0E959FF4F1083E09110
:10027800620081E08E0F80936200F0E0E959FF4F41
:10028800D082E091620081E08E0F80936200F0E0FE
:10029800E959FF4FC082809162008F70809362009D
:1002A8002FEFA21AB20A412C612C8A149B0409F080
:1002B80059C1172D57C13091620020916500321342
:1002C80026C1113C19F460FE82C175C1133C09F0C6
:1002D8003BC140EA4983DA82CB827C82BE016B5FF4
:1002E8007F4FCE01019609D25FEFC51AD50A5D9BF3
:1002F800FECF88858CB9639460E2661204C07FEFF4
:10030800A71AB70A612C8A149B0409F02BC1172D70
:1003180029C15F9B0BC08CB1E1E0F0E0EC0FFD1F41
:10032800E00FF11D80830F5F8FEF9FEF043009F01E
:10033800EEC029812F3F69F02BB721110AC0BE01F9
:100348006B5F7F4FCE010196D8D12D828FEF9FEF43
:1003580007C15D822A812E837F8278862E3009F438
:100368005BC070F42A3009F441C028F42223F1F06C
:100378002630F9F096C02C3009F443C0F0F148C09B
:10038800243C50F4203C08F052C0243109F448C001
:10039800253109F448C085C0213F09F46CC02F3FBE
:1003A80009F47CC02E3C09F07CC05AC02EEF2D8386
:1003B800D5C02B81211106C02BB72F772BBF94985E
:1003C80095986FC0213049F4949A959A2AB7206875
:1003D8002ABF2BB720682BBF64C0223011F4959830
:1003E80060C0233009F0BCC0959A5BC028B33B813C
:1003F8003F70207F232B28BB54C028B32F702F8336
:10040800AFC027B33B813F70207F232B27BB49C058
:1004180027B32F702F83A4C026B32F702F83A0C0BB
:1004280042E04F839DC02B812093660099C0203CF9
:1004380031F469A57AA5769567957AA769A78B801F
:10044800912C982C88243C81830E911C122FE12C2E
:10045800F12CC12CD12C412C612CA12CB12C80C0A9
:100468002B8130E0322F22274C81B901640F711D96
:100478007AA769A775C0209163002F3F11F05886AD
:100488006FC02B81209361001DBC1CBC2EB523605E
:100498002EBD949871E07093630003C02EEF2D83F6
:1004A8005DC02D812E3F91F1E091620031E03E0F59
:1004B80030936200F0E0E959FF4F2083E091620039
:1004C80021E02E0F20936200F0E02E81E959FF4FC2
:1004D8002083E091620021E02E0F20936200F0E07B
:1004E8002F81E959FF4F2083E091620021E02E0F10
:1004F80020936200F0E02885E959FF4F208320917E
:1005080062002F7020936200072D01C0072D01970C
:1005180009F0F3CD172D072DF0CDFA82EB82E9E033
:10052800F0E0EC0FFD1FE60DF11D80818C83BE010C
:100538006B5F7F4FCE010196E0D049A55AA54E15B5
:100548005F0509F07CCE66CEDA82CB827C82BE0162
:100558006B5F7F4FCE010196D0D0C9CE072DD7CF84
:100568002D81A2CF8EEF9FEFC8CD88E48983FA82D0
:10057800EB82E9E0F0E0EC0FFD1FE60DF11D808154
:100588008C83BE016B5F7F4FCE010196B6D031CE12
:1005980080E48983FA82EB82E9E0F0E0EC0FFD1F4A
:1005A800E60DF11D80818C83BE016B5F7F4FCE010C
:1005B8000196A3D021CE58E25983DA82CB827C827D
:1005C800BE016B5F7F4FCE01019697D08DCE60E262
:1005D8006983DA82CB827C82BE016B5F7F4FCE015A
:0605E80001968BD084CEC9
:1005EE001F920F920FB60F9211248F939F9380B389
:1005FE0088709091600091110FC08823E1F183B74C
:10060E00887F83BF8AB780688ABF8BB780688BBFAD
:10061E008FEF8093600039C090916000993079F42B
:10062E0093B7987F93BF9AB790689ABF9BB790681D
:10063E009BBF811110C08FEF8093600026C09091F8
:10064E006400969590936400882329F0809164004D
:10065E00806880936400809160008F5F809360005B
:10066E0014C083B7887F83BF8AB780688ABF8BB771
:10067E0080688BBFE0CF80916000893091F38091CC
:10068E006400869580936400E6CF9F918F910F90C2
:08069E000FBE0F901F9018958C
:1006A6001F920F920FB60F9211248F9380916300C1
:1006B600893011F4949A17C0809163008A3039F416
:1006C6008EB5887F8EBD8FEF8093630011C08091B9
:1006D600610080FF02C0949A01C0949880916100E5
:1006E600869580936100809163008F5F809363009D
:0C06F6008F910F900FBE0F901F90189571
:10070200FC01A62FB72FBC016C5F7F4F419138E0EF
:1007120020E0442314F4949A01C09498440FC49A9C
:1007220090916600992311F09150F1F7220F83996D
:100732002160C49890916600992311F09150F1F7CD
:0E074200315039F72D93E617F70701F70895A8
:100750001F920F920FB60F9211248F931092640084
:10076000109260008BB78F778BBF8FE082BF83B70B
:10077000836083BF8F910F900FBE0F901F901895CD
:020780003FCC6C
:00000001FF
