:1000000015C0CBC3B2C3C9C35BC3C7C3C6C3C5C3D3
:10001000C4C3C3C3C2C3C1C3C0C3F6C2BEC3BDC38E
:10002000BCC3BBC3BAC300600077800011241FBEED
:10003000CFEDCDBFE6E2F0E040E017C0B591A5916D
:1000400035912591059107FD0CC095918591EF01A2
:10005000F92FE82F05900D92A217B307D9F7FE01EB
:1000600004C01D92A217B307E1F7EB32F40731F792
:0800700003D000C0F894FFCF9B
:10007800CF93DF93CDB7DD27CC52CDBFF89480E185
:1000880087BB82E381BB18BA81E582BB82E080BF6F
:1000980013BE9FE196BF12BE1FBC98E09EBD20E232
:1000A80030E03BBD2ABD1DBC1CBC21E429BF95BF67
:1000B8001BBE12B819B81CB81BB898E19AB996E0DB
:1000C80093B912B89AE099B910926200109265003B
:1000D8009FEF9093600090936300809366007894FC
:1000E80010E000E055245A940F2EF2EF3F2EF02D29
:1000F800712C0F2EFFE62F2EF02D9091620080912B
:100108006500981791F05D9B10C0E091650081E053
:100118008E0F80936500F0E0E959FF4F80818CB91C
:10012800809165008F7080936500809160008A30AF
:1001380031F550926000E0916200F0E0E959FF4F1C
:100148005082E0916200F0E0E859FF4F3082E09180
:100158006200F0E080916400E759FF4F8083E091EE
:100168006200F0E0E659FF4F1082809162008C5FD8
:1001780080936200809162008F70809362001123E7
:1001880009F4CCC0113C09F499C018F4103C39F0BA
:10019800C5C1123C21F0133C09F490C0BFC15F9B5C
:1001A8000CC08CB1E9E0F0E0EC0FFD1FE40DF11D8F
:1001B80080834394EE24EA94FE2C641408F0AEC1C4
:1001C800103C19F460FEF1C1DDC1123C09F0AEC16A
:1001D80081EC8983DA82CB82E9E0F0E0EC0FFD1F45
:1001E800E60DF11D80818C83BE016B5F7F4FCE01D0
:1001F800019690D22FEFC21AD20A4BA55CA54C15D6
:100208005D05F1F4103C19F48CE4898304C0123CB8
:1002180011F482EC8983BA82AB827C82BE016B5F67
:100228007F4FCE01019676D28BA59CA5A80EB91E4C
:1002380087EA91E60197F1F700C00000C12CD12CA4
:10024800639490E2691232C0E091620081E08E0FFF
:1002580080936200F0E0E959FF4F5082E09162001C
:1002680081E08E0F80936200F0E0E959FF4F108320
:10027800E091620081E08E0F80936200F0E0E9591E
:10028800FF4FB082E091620081E08E0F80936200A0
:10029800F0E0E959FF4FA082809162008F7080934F
:1002A80062002FEF821A920A412C612C49A55AA5A7
:1002B8004815590509F032C1172D30C190916200D7
:1002C8008091650098132AC1113C19F460FE8CC115
:1002D8007FC1133C09F041C150EA5983BA82AB820D
:1002E8007C82BE016B5F7F4FCE01019613D28FEFE8
:1002F800A81AB80A5D9BFECF88858CB9639490E2F2
:10030800691204C02FEF821A920A612C49A55AA5D6
:100318004815590509F02FC1172D2DC15F9B0CC039
:100328008CB1E1E0F0E0EC0FFD1FE00FF11D8083E0
:100338000F5FEE24EA94FE2C043009F0EFC08981A7
:100348008F3F59F08BB7811108C0BE016B5F7F4F9B
:10035800CE010196DFD12D820CC15D828A818E8308
:100368007F8278868E3009F45BC070F48A3009F495
:1003780041C028F48823F1F08630F9F099C08C3018
:1003880009F443C0F0F148C0843C50F4803C08F0C4
:1003980052C0843109F448C0853109F448C088C086
:1003A800813F09F46FC08F3F09F47FC08E3C09F08C
:1003B8007FC05DC05EEF5D83DAC08B81811106C0AE
:1003C8008BB78F778BBF9498959872C0813049F41A
:1003D800949A959A8AB780688ABF8BB780688BBFD2
:1003E80067C0823011F4959863C0833009F0C1C0AA
:1003F800959A5EC088B39B819F70807F892B88BB4C
:1004080057C088B38F708F83B4C087B39B819F70A8
:10041800807F892B87BB4CC087B38F708F83A9C01F
:1004280086B38F708F83A5C082E08F83A2C08B8133
:10043800809366009EC0803C31F42BA53CA5369580
:1004480027953CA72BA72B8130E0322F22279C81B0
:10045800A901490F511D5AA749A7182FC12CD12C02
:10046800A12CB12C412C612C812C912C82C08B8128
:1004780090E0982F88272C81AC01420F511D5CA772
:100488004BA777C0809163008F3F11F0588671C0E9
:100498008B81809361001DBC1CBC8EB583608EBDB2
:1004A800949851E05093630003C08EEF8D835FC032
:1004B8008D818E3F91F1E091620091E09E0F9093C3
:1004C8006200F0E0E959FF4F8083E091620081E02B
:1004D8008E0F80936200F0E08E81E959FF4F808390
:1004E800E091620081E08E0F80936200F0E08F81DE
:1004F800E959FF4F8083E091620081E08E0F80937D
:100508006200F0E08885E959FF4F8083809162009E
:100518008F7080936200072D01C0072D91E0E91AC2
:10052800F10809F0EACD172D072DE7CDDA82CB8245
:10053800E9E0F0E0EC0FFD1FE60DF11D80818C83F2
:10054800BE016B5F7F4FCE010196E4D02BA53CA581
:100558002C153D0509F074CE5ECEBA82AB827C8242
:10056800BE016B5F7F4FCE010196D4D0C3CE072D5D
:10057800D5CF8D81A0CF0F2EFEEFEF2EFF24FA945A
:10058800F02DBBCD88E48983DA82CB82E9E0F0E004
:10059800EC0FFD1FE60DF11D80818C83BE016B5FA2
:1005A8007F4FCE010196B6D025CE80E48983DA82CA
:1005B800CB82E9E0F0E0EC0FFD1FE60DF11D808134
:1005C8008C83BE016B5F7F4FCE010196A3D015CE01
:1005D80038E23983BA82AB827C82BE016B5F7F4F7F
:1005E800CE01019697D083CE40E24983BA82AB828E
:1005F8007C82BE016B5F7F4FCE0101968BD07ACE95
:100608001F920F920FB60F9211248F939F9380B36E
:1006180088709091600091110FC08823E1F183B731
:10062800887F83BF8AB780688ABF8BB780688BBF93
:100638008FEF8093600039C090916000993079F411
:1006480093B7987F93BF9AB790689ABF9BB7906803
:100658009BBF811110C08FEF8093600026C09091DE
:100668006400969590936400882329F08091640033
:10067800806880936400809160008F5F8093600041
:1006880014C083B7887F83BF8AB780688ABF8BB757
:1006980080688BBFE0CF80916000893091F38091B2
:1006A8006400869580936400E6CF9F918F910F90A8
:0806B8000FBE0F901F90189572
:1006C0001F920F920FB60F9211248F9380916300A7
:1006D000893011F4949A17C0809163008A3039F4FC
:1006E0008EB5887F8EBD8FEF8093630011C080919F
:1006F000610080FF02C0949A01C0949880916100CB
:10070000869580936100809163008F5F8093630082
:0C0710008F910F900FBE0F901F90189556
:10071C00FC01A62FB72FBC016C5F7F4F419138E0D5
:10072C0020E0442314F4949A01C09498440FC49A82
:10073C0090916600992311F09150F1F7220F839953
:10074C002160C49890916600992311F09150F1F7B3
:0E075C00315039F72D93E617F70701F708958E
:10076A001F920F920FB60F9211248F93109264006A
:10077A00109260008BB78F778BBF8FE082BF83B7F1
:10078A00836083BF8F910F900FBE0F901F901895B3
:02079A0032CC5F
:00000001FF
