:1000000015C0D5C3BCC3D3C365C3D1C3D0C3CFC38D
:10001000CEC3CDC3CCC3CBC3CAC300C3C8C3C7C33D
:10002000C6C3C5C3C4C300600077800011241FBECF
:10003000CFEDCDBFE6E2F0E040E017C0B591A5916D
:1000400035912591059107FD0CC095918591EF01A2
:10005000F92FE82F05900D92A217B307D9F7FE01EB
:1000600004C01D92A217B307E1F7EB32F40731F792
:0800700003D000C0F894FFCF9B
:10007800CF93DF93CDB7DD27CE52CDBF9E012F5F43
:100088003F4F3AA729A759A46AA4F89480E187BBEF
:1000980082E381BB18BA81E582BB92E090BF13BEB0
:1000A8008FE186BF12BE1FBC88E08EBD40E250E0E3
:1000B8005BBD4ABD1DBC1CBC21E429BF85BF1BBE5E
:1000C80012B819B81CB81BB888E18AB986E083B998
:1000D80012B88AE089B9109262001092650085E52D
:1000E80089838A838FEF8D831E821F82188680936F
:1000F80060008093630090936600789410E0E12C90
:10010800F12CB12C77247A94A12C909162008091E3
:100118006500981791F05D9B10C0E091650081E043
:100128008E0F80936500F0E0E959FF4F80818CB90C
:10013800809165008F7080936500809160008A309F
:1001480039F570926000E0916200F0E0E959FF4FE4
:100158007082E0916200F0E0E859FF4F52EF50835F
:10016800E0916200F0E080916400E759FF4F8083DE
:10017800E0916200F0E0E659FF4F10828091620042
:100188008C5F80936200809162008F708093620020
:10019800112309F4CDC0113C09F49EC018F4103C99
:1001A80039F0C7C1123C21F0133C09F495C0C1C114
:1001B8005F9B0CC08CB1E9E0F0E0EC0FFD1FE40D93
:1001C800F11D80834394EE24EA94FE2C041508F074
:1001D800B0C1103C19F400FFDBC1EFC1123C09F0BB
:1001E800AEC181EC89838CA58A839BA59B83E9E0BA
:1001F800F0E0EC0FFD1FE00FF11D80818C83BE0144
:100208006B5F7F4F852D962D8FD22BA53CA52F5F39
:100218003F4F3CA72BA74DA55EA58BA59CA54817CE
:100228005907F1F4103C19F48CE4898304C0123C9A
:1002380011F482EC8983DA82CB82AC82BE016B5FD7
:100248007F4F852D962D70D22DA53EA5C20ED31EAB
:1002580087EA91E60197F1F700C000001CA61BA6EB
:100268000F5F003209F065C1E091620081E08E0FF6
:1002780080936200F0E0E959FF4F7082E0916200DC
:1002880081E08E0F80936200F0E0E959FF4F108300
:10029800E091620081E08E0F80936200F0E0E959FE
:1002A800FF4FD082E091620081E08E0F8093620060
:1002B800F0E0E959FF4FC082809162008F7080930F
:1002C80062009FEF891A990A2814390409F02DC190
:1002D800412C00E01A2D2DC190916200809165009B
:1002E800981327C1113C19F400FF88C17BC1133C46
:1002F80009F040C120EA2983DA82CB82AC82BE01B0
:100308006B5F7F4F852D962D0FD23FEFC31AD30A0F
:100318000F5F003221F44FEF841A940A00E05D9BCE
:10032800FECF88858CB928143904E1F61A2D01C14D
:100338005F9B0CC08CB1E1E0F0E0EC0FFD1FEB0D12
:10034800F11D8083B394EE24EA94FE2C54E0B51298
:10035800F0C089818F3F61F08BB7811109C0BE0160
:100368006B5F7F4F852D962DDFD18FE68D830CC176
:100378007D828A818E83AF82A8868E3009F45BC025
:1003880070F48A3009F441C028F48823F1F08630EB
:10039800F9F096C08C3009F443C0F0F148C0843CB1
:1003A80050F4803C08F052C0843109F448C08531CB
:1003B80009F448C085C0813F09F46CC08F3F09F437
:1003C8007CC08E3C09F07CC05AC08EEF8D83DEC0A5
:1003D8008B81811106C08BB78F778BBF94989598C6
:1003E8006FC0813049F4949A959A8AB780688ABF19
:1003F8008BB780688BBF64C0823011F4959860C059
:10040800833009F0C1C0959A5BC088B39B819F7007
:10041800807F892B88BB54C088B38F708F83B4C00A
:1004280087B39B819F70807F892B87BB49C087B327
:100438008F708F83A9C086B38F708F83A5C082E029
:100448008F83A2C08B81809366009EC0803C31F46C
:100458002DA53EA5369527953EA72DA72B80312C97
:10046800322C22249C81290E311C182F1CA61BA675
:10047800C12CD12C412C00E0812C912C85C08B8182
:1004880090E0982F88272C81AC01420F511D5EA760
:100498004DA77AC0809163008F3F11F0788674C0B1
:1004A8008B81809361001DBC1CBC8EB583608EBDA2
:1004B800949851E05093630003C08EEF8D8366C01B
:1004C8008D818E3FA9F1E091620091E09E0F90939B
:1004D8006200F0E0E959FF4F8083E091620081E01B
:1004E8008E0F80936200F0E08E81E959FF4F808380
:1004F800E091620081E08E0F80936200F0E08F81CE
:10050800E959FF4F8083E091620081E08E0F80936C
:100518006200F0E08885E959FF4F8083809162008E
:100528008F7080936200BA2C04C0412C00E001C097
:10053800BA2C81E0E81AF10809F0E7CDA6CD9CA510
:100548009A832BA52B83E9E0F0E0EC0FFD1FE00F69
:10055800F11D80818C83BE016B5F7F4F852D962DA9
:10056800E3D04DA55EA58BA59CA54817590709F0B2
:1005780077CE61CEDA82CB82AC82BE016B5F7F4FD1
:10058800852D962DD1D0C4CE8D819DCFBA2CD1CFBB
:1005980080E489839CA59A832BA52B83E9E0F0E06E
:1005A800EC0FFD1FE00FF11D80818C83BE016B5F96
:1005B8007F4F852D962DB8D02ECE88E489833CA513
:1005C8003A834BA54B83E9E0F0E0EC0FFD1FE00F09
:1005D800F11D80818C83BE016B5F7F4F852D962D29
:1005E800A3D013CE58E25983DA82CB82AC82BE0103
:1005F8006B5F7F4F852D962D97D087CE80E28983BC
:10060800DA82CB82AC82BE016B5F7F4F852D962D3F
:040618008BD07ECE37
:10061C001F920F920FB60F9211248F939F9380B35A
:10062C0088709091600091110FC08823E1F183B71D
:10063C00887F83BF8AB780688ABF8BB780688BBF7F
:10064C008FEF8093600039C090916000993079F4FD
:10065C0093B7987F93BF9AB790689ABF9BB79068EF
:10066C009BBF811110C08FEF8093600026C09091CA
:10067C006400969590936400882329F0809164001F
:10068C00806880936400809160008F5F809360002D
:10069C0014C083B7887F83BF8AB780688ABF8BB743
:1006AC0080688BBFE0CF80916000893091F380919E
:1006BC006400869580936400E6CF9F918F910F9094
:0806CC000FBE0F901F9018955E
:1006D4001F920F920FB60F9211248F938091630093
:1006E400893011F4949A17C0809163008A3039F4E8
:1006F4008EB5887F8EBD8FEF8093630011C080918B
:10070400610080FF02C0949A01C0949880916100B6
:10071400869580936100809163008F5F809363006E
:0C0724008F910F900FBE0F901F90189542
:10073000FC01A62FB72FBC016C5F7F4F419138E0C1
:1007400020E0442314F4949A01C09498440FC49A6E
:1007500090916600992311F09150F1F7220F83993F
:100760002160C49890916600992311F09150F1F79F
:0E077000315039F72D93E617F70701F708957A
:10077E001F920F920FB60F9211248F931092640056
:10078E00109260008BB78F778BBF8FE082BF83B7DD
:10079E00836083BF8F910F900FBE0F901F9018959F
:0207AE0028CC55
:00000001FF
